{
  "contractName": "Voting",
  "abi": [
    {
      "constant": true,
      "inputs": [
        {
          "name": "",
          "type": "address"
        }
      ],
      "name": "alreadyVotedEight",
      "outputs": [
        {
          "name": "",
          "type": "bool"
        }
      ],
      "payable": false,
      "stateMutability": "view",
      "type": "function"
    },
    {
      "constant": true,
      "inputs": [
        {
          "name": "",
          "type": "address"
        }
      ],
      "name": "alreadyVotedSix",
      "outputs": [
        {
          "name": "",
          "type": "bool"
        }
      ],
      "payable": false,
      "stateMutability": "view",
      "type": "function"
    },
    {
      "constant": true,
      "inputs": [
        {
          "name": "",
          "type": "address"
        }
      ],
      "name": "alreadyVotedTen",
      "outputs": [
        {
          "name": "",
          "type": "bool"
        }
      ],
      "payable": false,
      "stateMutability": "view",
      "type": "function"
    },
    {
      "constant": false,
      "inputs": [
        {
          "name": "candidate",
          "type": "bytes32"
        }
      ],
      "name": "voteForThirdCandidate",
      "outputs": [],
      "payable": false,
      "stateMutability": "nonpayable",
      "type": "function"
    },
    {
      "constant": true,
      "inputs": [
        {
          "name": "candidate",
          "type": "bytes32"
        }
      ],
      "name": "totalVotesFor",
      "outputs": [
        {
          "name": "",
          "type": "uint8"
        }
      ],
      "payable": false,
      "stateMutability": "view",
      "type": "function"
    },
    {
      "constant": true,
      "inputs": [
        {
          "name": "",
          "type": "address"
        }
      ],
      "name": "alreadyVotedSeven",
      "outputs": [
        {
          "name": "",
          "type": "bool"
        }
      ],
      "payable": false,
      "stateMutability": "view",
      "type": "function"
    },
    {
      "constant": true,
      "inputs": [
        {
          "name": "candidate",
          "type": "bytes32"
        }
      ],
      "name": "validCandidate",
      "outputs": [
        {
          "name": "",
          "type": "bool"
        }
      ],
      "payable": false,
      "stateMutability": "view",
      "type": "function"
    },
    {
      "constant": true,
      "inputs": [
        {
          "name": "",
          "type": "address"
        }
      ],
      "name": "alreadyVotedThree",
      "outputs": [
        {
          "name": "",
          "type": "bool"
        }
      ],
      "payable": false,
      "stateMutability": "view",
      "type": "function"
    },
    {
      "constant": false,
      "inputs": [
        {
          "name": "candidate",
          "type": "bytes32"
        }
      ],
      "name": "voteForNinethCandidate",
      "outputs": [],
      "payable": false,
      "stateMutability": "nonpayable",
      "type": "function"
    },
    {
      "constant": false,
      "inputs": [
        {
          "name": "candidate",
          "type": "bytes32"
        }
      ],
      "name": "voteForEighthCandidate",
      "outputs": [],
      "payable": false,
      "stateMutability": "nonpayable",
      "type": "function"
    },
    {
      "constant": false,
      "inputs": [
        {
          "name": "candidate",
          "type": "bytes32"
        }
      ],
      "name": "voteForFifthCandidate",
      "outputs": [],
      "payable": false,
      "stateMutability": "nonpayable",
      "type": "function"
    },
    {
      "constant": false,
      "inputs": [
        {
          "name": "candidate",
          "type": "bytes32"
        }
      ],
      "name": "voteForSeventhCandidate",
      "outputs": [],
      "payable": false,
      "stateMutability": "nonpayable",
      "type": "function"
    },
    {
      "constant": true,
      "inputs": [
        {
          "name": "",
          "type": "bytes32"
        }
      ],
      "name": "votesReceived",
      "outputs": [
        {
          "name": "",
          "type": "uint8"
        }
      ],
      "payable": false,
      "stateMutability": "view",
      "type": "function"
    },
    {
      "constant": true,
      "inputs": [
        {
          "name": "",
          "type": "address"
        }
      ],
      "name": "alreadyVotedTwo",
      "outputs": [
        {
          "name": "",
          "type": "bool"
        }
      ],
      "payable": false,
      "stateMutability": "view",
      "type": "function"
    },
    {
      "constant": false,
      "inputs": [
        {
          "name": "candidate",
          "type": "bytes32"
        }
      ],
      "name": "voteForSixthCandidate",
      "outputs": [],
      "payable": false,
      "stateMutability": "nonpayable",
      "type": "function"
    },
    {
      "constant": false,
      "inputs": [
        {
          "name": "candidate",
          "type": "bytes32"
        }
      ],
      "name": "voteForFourthCandidate",
      "outputs": [],
      "payable": false,
      "stateMutability": "nonpayable",
      "type": "function"
    },
    {
      "constant": true,
      "inputs": [
        {
          "name": "",
          "type": "address"
        }
      ],
      "name": "alreadyVotedNine",
      "outputs": [
        {
          "name": "",
          "type": "bool"
        }
      ],
      "payable": false,
      "stateMutability": "view",
      "type": "function"
    },
    {
      "constant": true,
      "inputs": [
        {
          "name": "",
          "type": "address"
        }
      ],
      "name": "alreadyVotedFour",
      "outputs": [
        {
          "name": "",
          "type": "bool"
        }
      ],
      "payable": false,
      "stateMutability": "view",
      "type": "function"
    },
    {
      "constant": true,
      "inputs": [
        {
          "name": "",
          "type": "uint256"
        }
      ],
      "name": "candidateList",
      "outputs": [
        {
          "name": "",
          "type": "bytes32"
        }
      ],
      "payable": false,
      "stateMutability": "view",
      "type": "function"
    },
    {
      "constant": true,
      "inputs": [
        {
          "name": "",
          "type": "address"
        }
      ],
      "name": "alreadyVotedFive",
      "outputs": [
        {
          "name": "",
          "type": "bool"
        }
      ],
      "payable": false,
      "stateMutability": "view",
      "type": "function"
    },
    {
      "constant": false,
      "inputs": [
        {
          "name": "candidate",
          "type": "bytes32"
        }
      ],
      "name": "voteForSecondCandidate",
      "outputs": [],
      "payable": false,
      "stateMutability": "nonpayable",
      "type": "function"
    },
    {
      "constant": false,
      "inputs": [
        {
          "name": "candidate",
          "type": "bytes32"
        }
      ],
      "name": "voteForTenthCandidate",
      "outputs": [],
      "payable": false,
      "stateMutability": "nonpayable",
      "type": "function"
    },
    {
      "constant": false,
      "inputs": [
        {
          "name": "candidate",
          "type": "bytes32"
        }
      ],
      "name": "voteForCandidate",
      "outputs": [],
      "payable": false,
      "stateMutability": "nonpayable",
      "type": "function"
    },
    {
      "constant": true,
      "inputs": [
        {
          "name": "",
          "type": "address"
        }
      ],
      "name": "alreadyVotedOne",
      "outputs": [
        {
          "name": "",
          "type": "bool"
        }
      ],
      "payable": false,
      "stateMutability": "view",
      "type": "function"
    },
    {
      "inputs": [
        {
          "name": "candidateNames",
          "type": "bytes32[]"
        }
      ],
      "payable": false,
      "stateMutability": "nonpayable",
      "type": "constructor"
    }
  ],
  "bytecode": "0x6060604052341561000f57600080fd5b604051620014a5380380620014a58339810160405280805182019190505080600b908051906020019061004392919061004a565b50506100c2565b82805482825590600052602060002090810192821561008c579160200282015b8281111561008b57825182906000191690559160200191906001019061006a565b5b509050610099919061009d565b5090565b6100bf91905b808211156100bb5760008160009055506001016100a3565b5090565b90565b6113d380620000d26000396000f30060606040526004361061013e576000357c0100000000000000000000000000000000000000000000000000000000900463ffffffff168063028c248f14610143578063058ca3651461019457806326adf07d146101e55780632c49d123146102365780632f265cf71461025d5780632fdc96e31461029e578063392e6678146102ef5780634322e13f1461032e57806354efae841461037f5780635a76b89b146103a657806368e4c973146103cd5780636a58af98146103f45780637021939f1461041b5780637f0092d31461045c57806384862a6d146104ad5780638d13e9e9146104d45780638f2e568b146104fb5780639b3785741461054c578063b13c744b1461059d578063b6fec322146105dc578063b9dd00ec1461062d578063c6c94cb514610654578063cc9ab2671461067b578063f69d7c0f146106a2575b600080fd5b341561014e57600080fd5b61017a600480803573ffffffffffffffffffffffffffffffffffffffff169060200190919050506106f3565b604051808215151515815260200191505060405180910390f35b341561019f57600080fd5b6101cb600480803573ffffffffffffffffffffffffffffffffffffffff16906020019091905050610713565b604051808215151515815260200191505060405180910390f35b34156101f057600080fd5b61021c600480803573ffffffffffffffffffffffffffffffffffffffff16906020019091905050610733565b604051808215151515815260200191505060405180910390f35b341561024157600080fd5b61025b600480803560001916906020019091905050610753565b005b341561026857600080fd5b610282600480803560001916906020019091905050610861565b604051808260ff1660ff16815260200191505060405180910390f35b34156102a957600080fd5b6102d5600480803573ffffffffffffffffffffffffffffffffffffffff169060200190919050506108a6565b604051808215151515815260200191505060405180910390f35b34156102fa57600080fd5b6103146004808035600019169060200190919050506108c6565b604051808215151515815260200191505060405180910390f35b341561033957600080fd5b610365600480803573ffffffffffffffffffffffffffffffffffffffff16906020019091905050610926565b604051808215151515815260200191505060405180910390f35b341561038a57600080fd5b6103a4600480803560001916906020019091905050610946565b005b34156103b157600080fd5b6103cb600480803560001916906020019091905050610a54565b005b34156103d857600080fd5b6103f2600480803560001916906020019091905050610b62565b005b34156103ff57600080fd5b610419600480803560001916906020019091905050610c70565b005b341561042657600080fd5b610440600480803560001916906020019091905050610d7e565b604051808260ff1660ff16815260200191505060405180910390f35b341561046757600080fd5b610493600480803573ffffffffffffffffffffffffffffffffffffffff16906020019091905050610d9e565b604051808215151515815260200191505060405180910390f35b34156104b857600080fd5b6104d2600480803560001916906020019091905050610dbe565b005b34156104df57600080fd5b6104f9600480803560001916906020019091905050610ecc565b005b341561050657600080fd5b610532600480803573ffffffffffffffffffffffffffffffffffffffff16906020019091905050610fda565b604051808215151515815260200191505060405180910390f35b341561055757600080fd5b610583600480803573ffffffffffffffffffffffffffffffffffffffff16906020019091905050610ffa565b604051808215151515815260200191505060405180910390f35b34156105a857600080fd5b6105be600480803590602001909190505061101a565b60405180826000191660001916815260200191505060405180910390f35b34156105e757600080fd5b610613600480803573ffffffffffffffffffffffffffffffffffffffff1690602001909190505061103e565b604051808215151515815260200191505060405180910390f35b341561063857600080fd5b61065260048080356000191690602001909190505061105e565b005b341561065f57600080fd5b61067960048080356000191690602001909190505061116c565b005b341561068657600080fd5b6106a060048080356000191690602001909190505061127a565b005b34156106ad57600080fd5b6106d9600480803573ffffffffffffffffffffffffffffffffffffffff16906020019091905050611387565b604051808215151515815260200191505060405180910390f35b60086020528060005260406000206000915054906101000a900460ff1681565b60066020528060005260406000206000915054906101000a900460ff1681565b600a6020528060005260406000206000915054906101000a900460ff1681565b600360003373ffffffffffffffffffffffffffffffffffffffff1673ffffffffffffffffffffffffffffffffffffffff16815260200190815260200160002060009054906101000a900460ff161515156107ac57600080fd5b6107b5816108c6565b15156107c057600080fd5b6001600080836000191660001916815260200190815260200160002060008282829054906101000a900460ff160192506101000a81548160ff021916908360ff1602179055506001600360003373ffffffffffffffffffffffffffffffffffffffff1673ffffffffffffffffffffffffffffffffffffffff16815260200190815260200160002060006101000a81548160ff02191690831515021790555050565b600061086c826108c6565b151561087757600080fd5b600080836000191660001916815260200190815260200160002060009054906101000a900460ff169050919050565b60076020528060005260406000206000915054906101000a900460ff1681565b600080600090505b600b8054905081101561091b578260001916600b828154811015156108ef57fe5b90600052602060002090015460001916141561090e5760019150610920565b80806001019150506108ce565b600091505b50919050565b60036020528060005260406000206000915054906101000a900460ff1681565b600960003373ffffffffffffffffffffffffffffffffffffffff1673ffffffffffffffffffffffffffffffffffffffff16815260200190815260200160002060009054906101000a900460ff1615151561099f57600080fd5b6109a8816108c6565b15156109b357600080fd5b6001600080836000191660001916815260200190815260200160002060008282829054906101000a900460ff160192506101000a81548160ff021916908360ff1602179055506001600960003373ffffffffffffffffffffffffffffffffffffffff1673ffffffffffffffffffffffffffffffffffffffff16815260200190815260200160002060006101000a81548160ff02191690831515021790555050565b600860003373ffffffffffffffffffffffffffffffffffffffff1673ffffffffffffffffffffffffffffffffffffffff16815260200190815260200160002060009054906101000a900460ff16151515610aad57600080fd5b610ab6816108c6565b1515610ac157600080fd5b6001600080836000191660001916815260200190815260200160002060008282829054906101000a900460ff160192506101000a81548160ff021916908360ff1602179055506001600860003373ffffffffffffffffffffffffffffffffffffffff1673ffffffffffffffffffffffffffffffffffffffff16815260200190815260200160002060006101000a81548160ff02191690831515021790555050565b600560003373ffffffffffffffffffffffffffffffffffffffff1673ffffffffffffffffffffffffffffffffffffffff16815260200190815260200160002060009054906101000a900460ff16151515610bbb57600080fd5b610bc4816108c6565b1515610bcf57600080fd5b6001600080836000191660001916815260200190815260200160002060008282829054906101000a900460ff160192506101000a81548160ff021916908360ff1602179055506001600560003373ffffffffffffffffffffffffffffffffffffffff1673ffffffffffffffffffffffffffffffffffffffff16815260200190815260200160002060006101000a81548160ff02191690831515021790555050565b600760003373ffffffffffffffffffffffffffffffffffffffff1673ffffffffffffffffffffffffffffffffffffffff16815260200190815260200160002060009054906101000a900460ff16151515610cc957600080fd5b610cd2816108c6565b1515610cdd57600080fd5b6001600080836000191660001916815260200190815260200160002060008282829054906101000a900460ff160192506101000a81548160ff021916908360ff1602179055506001600760003373ffffffffffffffffffffffffffffffffffffffff1673ffffffffffffffffffffffffffffffffffffffff16815260200190815260200160002060006101000a81548160ff02191690831515021790555050565b60006020528060005260406000206000915054906101000a900460ff1681565b60026020528060005260406000206000915054906101000a900460ff1681565b600660003373ffffffffffffffffffffffffffffffffffffffff1673ffffffffffffffffffffffffffffffffffffffff16815260200190815260200160002060009054906101000a900460ff16151515610e1757600080fd5b610e20816108c6565b1515610e2b57600080fd5b6001600080836000191660001916815260200190815260200160002060008282829054906101000a900460ff160192506101000a81548160ff021916908360ff1602179055506001600660003373ffffffffffffffffffffffffffffffffffffffff1673ffffffffffffffffffffffffffffffffffffffff16815260200190815260200160002060006101000a81548160ff02191690831515021790555050565b600460003373ffffffffffffffffffffffffffffffffffffffff1673ffffffffffffffffffffffffffffffffffffffff16815260200190815260200160002060009054906101000a900460ff16151515610f2557600080fd5b610f2e816108c6565b1515610f3957600080fd5b6001600080836000191660001916815260200190815260200160002060008282829054906101000a900460ff160192506101000a81548160ff021916908360ff1602179055506001600460003373ffffffffffffffffffffffffffffffffffffffff1673ffffffffffffffffffffffffffffffffffffffff16815260200190815260200160002060006101000a81548160ff02191690831515021790555050565b60096020528060005260406000206000915054906101000a900460ff1681565b60046020528060005260406000206000915054906101000a900460ff1681565b600b8181548110151561102957fe5b90600052602060002090016000915090505481565b60056020528060005260406000206000915054906101000a900460ff1681565b600260003373ffffffffffffffffffffffffffffffffffffffff1673ffffffffffffffffffffffffffffffffffffffff16815260200190815260200160002060009054906101000a900460ff161515156110b757600080fd5b6110c0816108c6565b15156110cb57600080fd5b6001600080836000191660001916815260200190815260200160002060008282829054906101000a900460ff160192506101000a81548160ff021916908360ff1602179055506001600260003373ffffffffffffffffffffffffffffffffffffffff1673ffffffffffffffffffffffffffffffffffffffff16815260200190815260200160002060006101000a81548160ff02191690831515021790555050565b600a60003373ffffffffffffffffffffffffffffffffffffffff1673ffffffffffffffffffffffffffffffffffffffff16815260200190815260200160002060009054906101000a900460ff161515156111c557600080fd5b6111ce816108c6565b15156111d957600080fd5b6001600080836000191660001916815260200190815260200160002060008282829054906101000a900460ff160192506101000a81548160ff021916908360ff1602179055506001600a60003373ffffffffffffffffffffffffffffffffffffffff1673ffffffffffffffffffffffffffffffffffffffff16815260200190815260200160002060006101000a81548160ff02191690831515021790555050565b600160003373ffffffffffffffffffffffffffffffffffffffff1673ffffffffffffffffffffffffffffffffffffffff16815260200190815260200160002060009054906101000a900460ff161515156112d357600080fd5b6112dc816108c6565b15156112e757600080fd5b6001600080836000191660001916815260200190815260200160002060008282829054906101000a900460ff160192506101000a81548160ff021916908360ff16021790555060018060003373ffffffffffffffffffffffffffffffffffffffff1673ffffffffffffffffffffffffffffffffffffffff16815260200190815260200160002060006101000a81548160ff02191690831515021790555050565b60016020528060005260406000206000915054906101000a900460ff16815600a165627a7a72305820e78883aed0f086d5e442a61d30b8d3a6c3a118917ff4c3fd75f84a6ffd5e9f680029",
  "source": "pragma solidity ^0.4.18;\n\ncontract Voting {\n\n  mapping (bytes32 => uint8) public votesReceived;\n  mapping (address => bool) public alreadyVotedOne;\n  mapping (address => bool) public alreadyVotedTwo;\n  mapping (address => bool) public alreadyVotedThree;\n  mapping (address => bool) public alreadyVotedFour;\n  mapping (address => bool) public alreadyVotedFive;\n  mapping (address => bool) public alreadyVotedSix;\n  mapping (address => bool) public alreadyVotedSeven;\n  mapping (address => bool) public alreadyVotedEight;\n  mapping (address => bool) public alreadyVotedNine;\n  mapping (address => bool) public alreadyVotedTen;\n  bytes32[] public candidateList;\n  \n  modifier notVotedOne() {\n    require(!alreadyVotedOne[msg.sender]);\n    _;\n  }\n  \n  modifier notVotedTwo() {\n    require(!alreadyVotedTwo[msg.sender]);\n    _;\n  }\n  \n  modifier notVotedThree() {\n    require(!alreadyVotedThree[msg.sender]);\n    _;\n  }\n  \n  modifier notVotedFour() {\n    require(!alreadyVotedFour[msg.sender]);\n    _;\n  }\n  \n  modifier notVotedFive() {\n    require(!alreadyVotedFive[msg.sender]);\n    _;\n  }\n  \n  modifier notVotedSix() {\n    require(!alreadyVotedSix[msg.sender]);\n    _;\n  }\n  \n  modifier notVotedSeven() {\n    require(!alreadyVotedSeven[msg.sender]);\n    _;\n  }\n  \n  modifier notVotedEight() {\n    require(!alreadyVotedEight[msg.sender]);\n    _;\n  }\n  \n  modifier notVotedNine() {\n    require(!alreadyVotedNine[msg.sender]);\n    _;\n  }\n  \n  modifier notVotedTen() {\n    require(!alreadyVotedTen[msg.sender]);\n    _;\n  }\n\n  function Voting(bytes32[] candidateNames) public {\n    candidateList = candidateNames;\n  }\n\n  function totalVotesFor(bytes32 candidate) view public returns (uint8) {\n    require(validCandidate(candidate));\n    return votesReceived[candidate];\n  }\n\n  function voteForCandidate(bytes32 candidate) public notVotedOne() {\n    require(validCandidate(candidate));\n    votesReceived[candidate]  += 1;\n    alreadyVotedOne[msg.sender] = true;\n  }\n  \n  function voteForSecondCandidate(bytes32 candidate) public notVotedTwo() {\n    require(validCandidate(candidate));\n    votesReceived[candidate] += 1;\n    alreadyVotedTwo[msg.sender] = true;\n    \n  }\n  \n  function voteForThirdCandidate(bytes32 candidate) public notVotedThree() {\n    require(validCandidate(candidate));\n    votesReceived[candidate] += 1;\n    alreadyVotedThree[msg.sender] = true;\n    \n  }\n  \n  function voteForFourthCandidate(bytes32 candidate) public notVotedFour() {\n    require(validCandidate(candidate));\n    votesReceived[candidate] += 1;\n    alreadyVotedFour[msg.sender] = true;\n  }\n  \n  function voteForFifthCandidate(bytes32 candidate) public notVotedFive() {\n    require(validCandidate(candidate));\n    votesReceived[candidate] += 1;\n    alreadyVotedFive[msg.sender] = true;\n  }\n  \n  function voteForSixthCandidate(bytes32 candidate) public notVotedSix() {\n    require(validCandidate(candidate));\n    votesReceived[candidate] += 1;\n    alreadyVotedSix[msg.sender] = true;\n  }\n  \n  function voteForSeventhCandidate(bytes32 candidate) public notVotedSeven() {\n    require(validCandidate(candidate));\n    votesReceived[candidate] += 1;\n    alreadyVotedSeven[msg.sender] = true;\n  }\n  \n  function voteForEighthCandidate(bytes32 candidate) public notVotedEight() {\n    require(validCandidate(candidate));\n    votesReceived[candidate] += 1;\n    alreadyVotedEight[msg.sender] = true;\n  }\n  \n \n  function voteForNinethCandidate(bytes32 candidate) public notVotedNine() {\n    require(validCandidate(candidate));\n    votesReceived[candidate] += 1;\n    alreadyVotedNine[msg.sender] = true;\n  }\n  \n  function voteForTenthCandidate(bytes32 candidate) public notVotedTen() {\n    require(validCandidate(candidate));\n    votesReceived[candidate] += 1;\n    alreadyVotedTen[msg.sender] = true;\n  }\n\n  function validCandidate(bytes32 candidate) view public returns (bool) {\n    for(uint i = 0; i < candidateList.length; i++) {\n      if (candidateList[i] == candidate) {\n        return true;\n      }\n    }\n    return false;\n   }\n}\n",
  "sourcePath": "/home/mohamednoushad/truffle_projects/survey again/contracts/Voting.sol",
  "compiler": {
    "name": "solc",
    "version": "0.4.18+commit.9cf6e910.Emscripten.clang"
  },
  "schemaVersion": "1.0.1",
  "updatedAt": "2017-12-04T08:49:00.982Z"
}